:020000040800F2
:100000007026002045010008370E0008630D000827
:10001000350E0008C1020008CD3E000800000000B7
:100020000000000000000000000000005D3D00082E
:100030008D03000800000000330200085D1E000868
:100040005F0100085F0100085F0100085F01000810
:100050005F0100085F0100085F0100085F01000800
:100060005F0100085F0100085F0100085F010008F0
:100070005F0100085F0100085F0100085F010008E0
:100080005F0100085F0100085F0100085F010008D0
:100090005F0100085F0100085F0100085F010008C0
:1000A0005F0100085F0100085F0100085F010008B0
:1000B0005F0100085F0100085F0100085F010008A0
:1000C0005F0100085F0100085F0100085F01000890
:1000D0005F0100085F0100085F0100085F01000880
:1000E0005F0100085F0100085F0100085F01000870
:1000F0005F0100085F0100085F0100085F01000860
:100100005F0100085F0100085F0100085F0100084F
:100110005F0100085F0100085F0100085F0100083F
:100120005F0100085F0100085F0100085F0100082F
:10013000DFF80CD000F05AF80048004725420008CC
:10014000702600200648804706480047FEE7FEE785
:10015000FEE7FEE7FEE7FEE7FEE7FEE7FEE7FEE777
:10016000AD3D00083101000872B6704762B67047B5
:10017000EFF3108072B6704780F31088704730BF7D
:10018000704720BF7047B0FA80F0704790FAA0F037
:10019000B0FA80F0704790FAA0F07047D2B201E058
:1001A00000F8012B491EFBD270470022F6E710B57C
:1001B00013460A4604461946FFF7F0FF204610BDD5
:1001C00030B50B46014600202022012409E021FA27
:1001D00002F59D4205D303FA02F5491B04FA02F524
:1001E0002844151EA2F10102F1DC30BD064C074D7A
:1001F00006E0E06840F0010394E8070098471034F7
:10020000AC42F6D3FFF798FF0445000824450008E8
:1002100018484FF0FF010170002080F3098816484C
:10022000016881F3088815484FF08051016062B67B
:10023000FEE772B6EFF3098028B1203880E8F00FAE
:100240000F490968086000B50E4880475DF804EB67
:100250000D480E490A78027009480D490A68026083
:10026000106890E8F00F203080F309884EF0040EFB
:1002700062B6704722ED00E02C00002004ED00E0A3
:10028000F8000020311B00088A0000208B000020AD
:10029000FC00002010B500F005F8BDE8104000F0AB
:1002A00061BD000010B500F099FA04490968BDE885
:1002B0001040B0FBF1F001F0E9BD0000D8440008A7
:1002C000FEE7000003490969884201D9401A7047D6
:1002D000002070471000002010B5FFF749FF0449C7
:1002E0004C69FFF749FF2046BDE81040FFF7EABF21
:1002F0001000002010B5FFF7EFFF0446FFF738FFAE
:10030000034A00215161FFF737FF204610BD00006E
:100310001000002010B5FFF72BFF04498C69FFF790
:100320002BFF2046BDE81040FFF7CCBF1000002097
:1003300010B5064C2088401C2080608810B900F061
:100340001FF8A0606088401C608010BD1000002075
:1003500010B50A4C6088401E0004000C60800CD16F
:1003600000F00EF8E060A168401A6169814200D295
:100370006061A169814200D2A06110BD100000201F
:100380000148406870470000001000E07047704767
:100390002DE9F84FDFF8C891002409F1040A0AF1A9
:1003A000040B23460F270BF1040ED1E00125A540D5
:1003B00006EA0502AA4276D1DFF8A8C14E68A6EB8C
:1003C0000C0866452BD00DDC032E34D005DC36B38B
:1003D000012E19D0022E2FD11BE0112E16D0122E75
:1003E0002AD119E0B8F5881F19D006DCB8F5803F8E
:1003F00015D0B8F5801F1FD111E0B8F5001F0ED041
:10040000B8F5041F18D10AE0CB6815E0CB681B1DB6
:1004100012E0CB6808330FE0CB680C330CE08B683C
:100420002BB1012B4FF0080303D0456104E00423F6
:1004300002E0056100E00023FF2A01D8064601E042
:1004400000F104064FEA840501D9A5F12005D6F88C
:10045000008007FA05FC28EA0C0803FA05F548EACB
:100460000508C6F800804D68ED0070D53E4DAE69B8
:1004700046F00106AE61AD6924F0030605F0010502
:1004800000953A4D06EB050CDCF80850A607360F30
:1004900007FA06F825EA0805DFF8D480404503D1BD
:1004A0004FF0000825E052E0DFF8C880404502D157
:1004B0004FF001081DE0DFF8C080404502D14FF049
:1004C000020816E0DFF8B480404502D14FF003087F
:1004D0000FE0DFF8AC80404502D14FF0040808E09F
:1004E000DFF8A080404502D14FF0050801E04FF051
:1004F000060808FA06F848EA0508CCF808804D68AE
:10050000D9F80060ED034D4601D5164300E096434F
:100510002E604D68DAF80060AD03554601D51643EC
:1005200000E096432E604D68DBF80060ED025D460A
:1005300001D5164300E096432E604D68DEF800605A
:10054000AD02754601D5164300E096432E60641C4B
:100550000A681646E2407FF429AFBDE8F88F000034
:100560000004014000001110001002400000014092
:1005700000080140000C014000100140001401403F
:1005800000180140001C0140C26821EA02030A4031
:1005900043EA0241016170470AB1016170470904F1
:1005A000FBE7000001488068704700000000002061
:1005B000074810B5016841F010010160032000F008
:1005C00065F8002000F006F800F024F8002010BDC7
:1005D0000020024070B50D4D04464FF47A71287822
:1005E000B1FBF0F00A490968B1FBF0F000F0E2FA63
:1005F00048B9102C07D200222146501E00F026F8E0
:1006000000206C6070BD012070BD00000000002063
:100610000C0000200B4808B5816941F0010181619F
:10062000816901F001010091C16941F08051C1610E
:10063000C06900F0805000900348416821F0E061FB
:10064000416008BD0010024000000140F0B40E4BB4
:100650001B680C46C3F30223C3F10705042D00D920
:100660000425191D072901D2002300E0DB1E012605
:1006700006FA05F1491E214099409E40761E16401B
:100680003143F0BC03F034BC0CED00E0064900F04F
:10069000070208684FF6FF03184040EA0220034AA9
:1006A00010430860704700000CED00E00000FA0500
:1006B0002DE9F0470F46050061D0434E306800F049
:1006C0000700B84209D2306820F007003843306094
:1006D000306800F00700B84251D128683B4C8107D0
:1006E00012D5400703D5606840F4E0606060287868
:1006F000000703D5606840F4605060606068A968D6
:1007000020F0F000084360602878C00728D06868AF
:10071000012810D02168022810D0890700292EDA7C
:10072000616821F0030101436160FFF73BFF8046F0
:1007300041F288390DE021688903EFE78901EDE78F
:10074000FFF730FFA0EB0801494502D90320BDE8BF
:10075000F0876068696800F00C00B0EB810FEFD1A2
:10076000306800F00700B8420BD9306820F007006D
:1007700038433060306800F00700B84201D00120F3
:10078000E5E72878400705D56068E96820F4E0606F
:10079000084360602878000706D56068296920F45E
:1007A000605040EAC100606000F03EF86168084AAD
:1007B000C1F30311515CC84006490860064800684F
:1007C000FFF708FF0020C2E70020024000100240AF
:1007D000784400080C000020040000200148006854
:1007E000704700000C000020044805490068496873
:1007F000044AC1F30221515CC84070470C0000203C
:10080000001002408844000804480549006849680F
:10081000044AC1F3C221515CC84070470C0000205B
:10082000001002408844000812A185B00FC98DE86D
:100830000F0014A0144A006804905168134801F096
:100840000C03042B10D0082B0ED1C1F38343C90332
:100850001DF803000AD5516804AAC1F34041515C58
:100860000A4A5043B0FBF1F005B0704708494843CD
:10087000FAE7000002030405060708090A0B0C0D3D
:100880000E0F1010010200000010024000127A004A
:1008900000093D002DE9F84F040070D02078C04DCC
:1008A000C00749D06868C0F38100012807D0686894
:1008B000C0F38100022809D16868C00306D5286802
:1008C000800339D560680028E7D035E06068B0F56E
:1008D000803F0BD010B1B0F5A02F11D0286820F4C4
:1008E00080302860286820F4802002E0286840F4E6
:1008F00080302860606890B1FFF754FE06460AE039
:10090000286840F480202860F0E700BFFFF74AFE27
:10091000801B642873D828688003F7D50CE0FFF7A4
:1009200041FE064605E000BFFFF73CFE801B642841
:10093000F0D828688003F7D420789A4E80074FF0CB
:1009400001094FF0000839D5686810F00C0F07D086
:100950006868C0F38100022809D16868C00306D422
:100960002868800714D52069012808D110E0206983
:10097000B0B1C6F80090FFF715FE074605E00AE1A2
:10098000FFF710FEC01B0228C4D828688007F7D5DF
:100990002868616920F0F80040EAC10028600DE095
:1009A000C6F80080FFF7FEFD074604E0FFF7FAFDFA
:1009B000C01B022823D828688007F7D420780007B6
:1009C0002CD57948A169D9B1C0F80090FFF7EAFDAC
:1009D000074604E0FFF7E6FDC01B02280FD8686A4F
:1009E0008007F7D571484FF4FA510068B0FBF1F079
:1009F000009000BF0098411E0091FAD20EE080E006
:100A0000C0F80080FFF7CEFD074604E0FFF7CAFDFF
:100A1000C01B022875D8686A8007F7D42078400781
:100A200060D5E8690027C00008D4E86940F080502C
:100A3000E861E869012700F0805000905C48016897
:100A4000C90513D40168834641F480710160FFF742
:100A5000A9FD824606E000BFFFF7A4FDA0EB0A0057
:100A600064284ED8DBF80000C005F5D5E068012801
:100A70000AD008B1052813D0286A20F001002862A6
:100A8000286A20F0040002E0286A40F00100286291
:100A9000E06841F2883B98B1FFF784FD82460BE0A5
:100AA000286A40F004002862EEE700BFFFF77AFDF5
:100AB000A0EB0A0159455AD8286A8007F6D50CE000
:100AC000FFF770FD824605E0FFF76CFDA0EB0A0121
:100AD00059454CD8286A8007F6D41FB1E86920F040
:100AE0008050E861E06988B36968C1F38101022937
:100AF00044D00228C6F8608004D0FFF753FD0446B6
:100B000038E034E0FFF74EFD074604E0FFF74AFD0A
:100B1000C01B02282BD828688001F7D4206AB0F5C2
:100B2000803F05D16868A16820F400300843686000
:100B3000D4E908010843696821F474110843686026
:100B4000C6F86090FFF72EFD044606E025E000BFE2
:100B5000FFF728FD001B022809D828688001F7D577
:100B60001BE000BFFFF71EFD001B022802D9032077
:100B7000BDE8F88F28688001F4D40EE00128F7D092
:100B80006868226A00F48031914204D1616A00F4FD
:100B90007010884201D00120EAE70020E8E7000059
:100BA0000010024000004242800442420C0000203B
:100BB0000070004010B5401EB0F1807F01D30120CD
:100BC00010BD4FF0E02460610F21601703F090F931
:100BD0000020A06107202061002010BD70B5040036
:100BE00004D094F83D00002510B106E0012070BD4E
:100BF00084F83C50204600F023F8242084F83D007F
:100C00002068C16821F40051C160204603F0D0F88B
:100C10002068016921F4904101612068416921F057
:100C20002A0141612068C16841F40051C160256416
:100C3000202084F83D0084F83E00002070BD0000B4
:100C400030B585B0002400940194029403940068A8
:100C50001449884224D11448816941F4804181615A
:100C6000816901F480410491816941F0040181614D
:100C700080690E4D00F0040004904FF40070009065
:100C8000022001900320039069462846FFF780FB6D
:100C90002815CDE90004694628460294FFF778FB41
:100CA00005B030BD0038014000100240000801408E
:100CB0002DE9F843044690F83D001F4616460D46C0
:100CC00020284CD1C5B1BEB194F83C00012846D0D3
:100CD000012084F83C004FF00008C4F84080212037
:100CE00084F83D00FFF75EFCA6848146E684A06898
:100CF000B0F5805F03D004E00120BDE8F8832069EF
:100D000028B12E465FF0000584F83C800EE00026F6
:100D1000FAE78021204603F0A7F8A0B9AEB116F893
:100D2000010B21684860E08C401EE084E08C4B465B
:100D30004FF0000200970028EBD14FF04001204611
:100D400003F092F830B10320D7E735F8020BC0F377
:100D50000800E6E7202084F83D000020CDE70220CF
:100D6000CBE7FEE72DE9F04186B00024204800944F
:100D7000019402940394816941F0200181618169A9
:100D800001F020010491816941F0040181618169D0
:100D900001F004010491816941F0080181618069D9
:100DA000144F00F008004FF480750490002229468B
:100DB0003846FFF7F1FBDFF840800022042140466F
:100DC000FFF7EAFB0095022601250396CDE90154C1
:100DD00069463846FFF7DCFA0420CDE90005CDE985
:100DE000024669464046FFF7D3FA06B0BDE8F081F7
:100DF0000010024000080140001401400C4810B5EA
:100E00000A4901604FF4E1314160002181600C2208
:100E1000C160C0E904128161C161FFF7DFFE0028F3
:100E200003D0BDE81040FFF7B2BA10BD0038014052
:100E300024080020FEE7FEE7704700000248006833
:100E4000002800D0004770474000002010B504463D
:100E500000F0BEF8464800210A22017045480170A2
:100E600045480170454801604548016045480170AA
:100E7000454801704548017045480160454801609A
:100E8000454801604548017045480068B0FBF2F0F4
:100E9000444A1060444A106830B14448006818B1B0
:100EA000126802C0521EFCD14148016041480160F5
:100EB000414801604148016041480160414801608A
:100EC000414801604148017001F0E0FC01F092FDF1
:100ED000204600F0F1FF2088002847D1204601F08D
:100EE000E5FA2088002841D1204601F0EBFA20885D
:100EF00000283BD1204601F07FFB2088002835D117
:100F0000204601F0E9FC208800282FD1204601F07E
:100F100099FE2088002829D1204602F005F9208872
:100F2000002823D1204601F035FA208800281DD161
:100F3000204601F0CDF82088002817D1204602F085
:100F40005FFD2088002811D1204602F04BF8208850
:100F500000280BD1204602F0A7FD2088002805D1EB
:100F600000F0A8FFBDE81040FFF766BF10BD00000D
:100F7000540000205C000020A4000020F8000020A5
:100F8000FC0000208A0000208B0000208C00002044
:100F9000980000209C000020A0000020AC00002051
:100FA000D8440008A8000020B4440008B044000859
:100FB00034000020380000203C00002040000020C9
:100FC00044000020480000204C000020DA000020EF
:100FD00030B5094B0020094A0446196801E010C1E8
:100FE000401C1568A842FAD31868054900EB850033
:100FF000001F086030BD0000B0440008B444000881
:101000002C0000201A4810B5007801282FD1FFF7D6
:10101000AFF8184A0446117829B1491E11F0FF00B3
:10102000107022D103E0BDE81040FFF7A5B81248C8
:101030000078D0B901F018FC10490870104900EB95
:10104000400051F820100F4801600F4800688142AD
:101050000BD051F8900F401C08600C480168491CE7
:1010600001600B494FF0805008602046DBE710BD5F
:101070005C00002054000020A40000208B00002011
:10108000941E0020FC000020F8000020D00000206A
:1010900004ED00E0164810B50078002826D1154868
:1010A0000078002822D1FFF763F8044601F0DCFB4A
:1010B00011490870114900EB400051F82000104917
:1010C00008601049096888420BD050F8901F491CED
:1010D00001600D480168491C01600C494FF08050C7
:1010E00008602046BDE81040FFF746B810BD00007C
:1010F00054000020A40000208B000020941E00203B
:10110000FC000020F8000020D000002004ED00E0EA
:1011100070B504461248007810B146F662501DE0E2
:1011200010480078012802D045F6896016E00E4D7F
:101130002878FA2802D345F209200FE0FFF718F8C3
:101140000646FFF7F5F82878401C287001F01AFDD4
:10115000FFF7FEF83046FFF70FF80020208070BD43
:10116000540000205C000020A40000202DE9F04184
:1011700016460C460546FEF7FBFF0746FFF7D8F874
:1011800029460D480025012901D0057001E0012103
:1011900001700A480CB1046005E009490A22096897
:1011A000B1FBF2F10160FFF7D3F83846FEF7E4FF38
:1011B0003580BDE8F0810000AC000020A8000020D0
:1011C000D844000870B504461848007810B146F6B7
:1011D000655029E016480078012802D045F689605C
:1011E00022E0144D287890B1FEF7C2FF0646FFF7C3
:1011F0009FF82878401E10F0FF0028700AD0FFF7F3
:10120000A7F83046FEF7B8FF46F663500CE046F606
:10121000645009E001F0C4FCFFF79AF83046FEF78D
:10122000ABFFFFF737FF0020208070BD5400002087
:101230005C000020A400002070B50F4D0446287803
:1012400018B145F68A60208070BD01F00DFB0B4996
:1012500008700B4908700B4900EB400051F8200062
:10126000094908600949086001202870FEF7D0FF8D
:1012700043F69920E7E700005C0000208B00002087
:101280008A000020941E0020FC000020F8000020AE
:101290002DE9F0410646FEF76BFF0546FFF748F8DB
:1012A0002E48002404602E4804802E4804802E48D6
:1012B00004602E4804602E4804602E4804602E48C6
:1012C00004602E480481FFF743F82846FEF754FFD8
:1012D000FEF74EFF0746FFF72BF82948056818E090
:1012E000FEF746FF0746FFF723F8C5F8B440C5F8F8
:1012F000B84045F8784F2C63AC61AC82EC826C62EC
:10130000AC62FFF73DF845F8200FA5F13400848169
:10131000AD6AFFF71DF83846FEF72EFF002DDFD12E
:10132000FEF726FF0746FFF703F81648056806E0B4
:10133000FEF71EFF0746FEF7FBFFAC85AD69FFF722
:1013400007F83846FEF718FF002DF1D102F072FAC7
:1013500002F078FC3480BDE8F081000070000020CD
:101360006A000020BA000020CC000020E00000202D
:10137000E8000020580000209C000020881E00206B
:10138000D400002090000020F8B5044669462448A7
:1013900000F0A4FBBDF8000058BB6A460021022003
:1013A00000F0FAFBBDF8000018BBFEF7E1FE0746AF
:1013B000FEF7BEFF1B4E00253560FEF7C9FF38461D
:1013C000FEF7DAFE184919480A6803689A4202D9FA
:1013D000B2FBF3F010B90A21B2FBF1F06A4600212A
:1013E00000F0DAFB69460E4800F0F2F9BDF80000A3
:1013F00008B12080F8BDFEF7BBFE0746FEF798FF58
:101400000B480C490560306808600B4901200870E2
:10141000FEF79EFF3846FEF7AFFE2580F8BD0000C0
:10142000A4210020BC000020D8440008C4440008C7
:10143000CC000020C0000020C80000200248006846
:10144000002800D000477047440000202DE9FF4FDE
:1014500083B004467248DDE91785DDE9109600780F
:10146000DDF854A0139F10B147F24A102AE04CB1A6
:10147000059850B166B16B48006887420BD246F6BA
:1014800030601FE047F2AD101CE047F24F1019E04A
:1014900046F62F6016E01298B84202D346F6316045
:1014A00010E046F27320B9F1200F0BD25FEA090178
:1014B00003D0B9F11F0F02D008E05B4900E05B499F
:1014C0008C4203D0288007B0BDE8F08F204601F0A1
:1014D0003BFE4FF0000BA5F800B05FEAC8700AD0E1
:1014E0005FEA887007D5304600215A4601E004C003
:1014F000491CB942FBD31298CDE9007806EB800570
:10150000DDE905012B46324600F0B0FA0599A162EB
:101510000699E1620499216284F83790C4F854A0D6
:10152000A56020605FEA0A0024D0A0651698A76332
:1015300066626060A4F83C800020594604EB80029B
:10154000401CD16710F0FF00F8D004F1640014993A
:1015500001F006F8204600F075F8FEF709FE064691
:10156000FEF7E6FE324D2878401CC0B228700128F4
:1015700003D004E02F480068D7E701F003FBFEF733
:10158000E7FE3046FEF7F8FD94F8370001F084F9E5
:10159000204601F075FA204601F098FD264908889A
:1015A000401C088025480078012821D0FEF7E0FD86
:1015B0000446FEF7BDFE2878401E10F0FF0129709A
:1015C0000ED101F0EDFA1E48008848B1FEF7C0FECA
:1015D0002046FEF7D1FD07B0BDE8F04F01F0AEBAEE
:1015E000FEF7B6FE07B02046BDE8F04FFEF7C4BDDB
:1015F000FEF7BEFD0446FEF79BFE2878401E10F065
:10160000FF01297001D101F0CBFAFEF7A1FE2046BF
:10161000FEF7B2FD07B0BDE8F04FFFF73BBD00009D
:1016200054000020D4440008C01D0020F81C0020F5
:10163000A4000020A8000020D80000205C000020AA
:101640006800002002490968002900D00847704757
:10165000340000202DE9F041044652480E4600783F
:1016600010B147F24E100AE04F48844202D147F2CF
:101670004C1004E04D48844204D147F24D100880DC
:10168000BDE8F0815CB9FEF773FD0546FEF750FE3C
:1016900047480468FEF75CFE2846FEF76DFDFEF73E
:1016A00067FD0746FEF744FE424D2878401CC0B255
:1016B0002870012801D101F065FAFEF749FE38468D
:1016C000FEF75AFD94F8360008283DD2DFE800F016
:1016D00004080C0C1C080C0C204601F005FA13E061
:1016E000204602F08BF80FE0204602F087F894F8CD
:1016F0003400072808D2DFE800F0070407040404D8
:101700000400204601F023F804F1640000F00EFF0D
:10171000204600F055F8204601F0EAFC26490888EA
:10172000401E0880204601F00FFDFF2084F836009F
:10173000FEF71EFD0446FEF7FBFD2878401E10F064
:10174000FF00287021D022E0FEF712FD0446FEF7CC
:10175000EFFD2878401E10F0FF0028700CD101F03A
:101760001FFA1648008838B1FEF7F2FD2046FEF752
:1017700003FD01F0E3F904E0FEF7EAFD2046FEF781
:10178000FBFC46F62D6030807AE701F009FAFEF79F
:10179000DFFD2046FEF7F0FC00203080BDE8F04180
:1017A000FFF778BC54000020F81C0020C01D00206A
:1017B000F8000020A4000020D800002068000020CD
:1017C00002490968002900D0084770473800002006
:1017D0007FB50D460446FEF7CBFC0646FEF7A8FD96
:1017E0001CB114480068844208D1FEF7B1FD3046B0
:1017F000FEF7C2FC47F2571028807FBDFEF7A8FD18
:101800003046FEF7B9FC0C48007858B10020CDE90D
:10181000020500900346024601902146074800F069
:101820008BFC7FBD04B029462046BDE8704001F026
:101830009FBD0000F8000020540000205452455382
:1018400002490968002900D0084770473C00002081
:101850002DE9F0478146574814461E4600788846D1
:1018600010B146F2AE1006E0080006D0B1F5004F08
:1018700003D045F6256018803DE0002704B12760BD
:10188000FEF776FC8246FEF753FD4B4D2968486C07
:10189000D8B1401E804648640CB1086C2060FEF749
:1018A0006FFD29680A6C801AC1F8A400D1F8A8203D
:1018B000824201D2C1F8A800FEF74AFD5046FEF769
:1018C0005BFC37804046BDE8F0875FEA084007D5FB
:1018D000FEF73EFD5046FEF74FFC46F2B01009E021
:1018E0003648017849B1FEF733FD5046FEF744FC17
:1018F00046F6635030800020E5E701218046017004
:1019000001F040F9FEF724FD5046FEF735FC0021BA
:101910004B460722084600F07BFEFEF729FC814675
:10192000FEF706FD98F80010491E11F0FF0188F837
:10193000001001D101F034F9FEF70AFD4846FEF728
:101940001BFCFFF7A7FBFEF713FC8046FEF7F0FC3D
:10195000286890F8351031B1012916D003291AD022
:1019600046F62E601BE074B1006C2060FEF708FDA7
:1019700029680A6C801AC1F8A400D1F8A820824214
:1019800001D2C1F8A80037800AE00CB1006C2060D9
:1019900046F2A91003E004B1276047F2D920308055
:1019A0002868446CFEF7D4FC4046FEF7E5FB204671
:1019B00089E7000054000020F8000020A400002067
:1019C0002DE9F0470546274816460F4600781C4685
:1019D00010B147F259100AE046F2D5203FB136B1B6
:1019E000FEF7C6FB8146FEF7A3FC1DB104E018809C
:1019F000BDE8F0871C4805684FF00008286858B11A
:101A000095F83C00C00713D0FEF7A2FC4846FEF74D
:101A1000B3FB0020696A1AE0FEF79AFC4846FEF71D
:101A2000ABFBC7F8008047F25210C6F800800AE00E
:101A3000FEF78EFC4846FEF79FFBC7F8008047F292
:101A40005410C6F800802080D2E7401C091D0A68A7
:101A5000002AFAD03860A96B081A3060A4F8008018
:101A6000C6E7000054000020F800002010B5029CDA
:101A700002EB84024FF0807442E90204164842F8F7
:101A80000C0C4FF0123042F8100CA2F114004FF081
:101A9000023240E903134FF0113140F8101CD1001D
:101AA00040F8141C4FF0093140F8181C910040F820
:101AB0001C1C4FF007314FF0033440F8201C61002C
:101AC00040F8241C4FF0053140F8281D5100C0E9B2
:101AD000092440F8041D10BD713400081FB5104AD8
:101AE000904202D147F25B1004E00E4A904203D1CB
:101AF00047F25C1008801FBD0B4A127852B10022D9
:101B0000CDE902210146009213460192074800F0F8
:101B100013FB1FBD04B0BDE8104001F079BD00000B
:101B2000F81C0020C01D00205400002054535553C1
:101B300070B51548006800B18047FEF721FC134CD2
:101B4000134A21681268914207D0D1F89830C31A1D
:101B500041F8943F8D682B448B60C2F89800FEF7E3
:101B6000C9FB2168D1F8B420824201D2C1F8B40087
:101B7000084AD1F8B8301068834201D2C1F8B800E1
:101B80000020106070BD000048000020F800002018
:101B9000FC000020A00000202DE9F04180463648DE
:101BA0000F461546007810B147F2752020E0334CFF
:101BB000207810B146F663501AE047B1022F06D0E4
:101BC000042F07D0082F02D045F6256010E0B8F1A9
:101BD000000F0BD0FEF7CCFA0646FEF7A9FB2078E3
:101BE000401CC0B22070012805D006E047F27E20DC
:101BF0001080BDE8F08100F0C5FFFEF7A9FB30467C
:101C0000FEF7BAFA1E4E01212B4630683A4680F89C
:101C10003610414601F086FD288898B1FEF7A8FAF3
:101C20000546FEF785FB2078401E10F0FF0121706D
:101C300001D100F0B5FFFEF78BFB2846BDE8F0416F
:101C4000FEF79ABA306800F04FFFFEF791FA0646A9
:101C5000FEF76EFB2078401E10F0FF00207001D1CF
:101C600000F09EFFFEF774FB3046FEF785FAFFF7A3
:101C700011FA00202880BCE754000020A4000020B6
:101C8000F80000202DE9F0475C4EDDE90854367875
:101C900016B147F27520ABE0DFF864A19AF8006056
:101CA00016B146F66350A3E015F00E0647F27E2902
:101CB00045F6256705D0022E03D0042E06D0082E47
:101CC00007D11BB912B909B900287DD035F01E0C17
:101CD00002D02780BDE8F087C5F3001547F2792CC4
:101CE00047F278284FF47A773DB142F20F75A94256
:101CF00012D900BFA4F800C0ECE7BB4202D347F200
:101D00007B2075E03B2A02D947F27A2070E03B291C
:101D1000F0D8632802D804E0B84202D3A4F80080C7
:101D2000D8E7384D4FF4FA7CC1EB01112D68BCFBAC
:101D3000F5FC63446B43B3FBF7F34FF461677843FF
:101D400000EB8100104400FB0537EFB3FEF710FAFB
:101D50008046FEF7EDFA9AF800005546401CC0B2E6
:101D60008AF80000012801D100F00CFFFEF7F0FA1C
:101D70004046FEF701FADFF8908001212346D8F8AB
:101D80000000324680F83610394601F0CBFC20883E
:101D900098B1FEF7EDF90446FEF7CAFA2878401E1E
:101DA00010F0FF01297001D100F0FAFEFEF7D0FA21
:101DB0002046BDE8F047FEF7DFB9D8F8000000F094
:101DC00093FEFEF7D5F900E014E00646FEF7B0FA00
:101DD0002878401E10F0FF00287001D100F0E0FECE
:101DE000FEF7B6FA3046FEF7C7F9FFF753F90020C1
:101DF00020806FE7A4F800906CE7000054000020FA
:101E0000A4000020D8440008F800002000B585B0E8
:101E100000F01CF8FEF7B4FA04AA00210392009126
:101E2000CDE9011006480749002300781A4600EB67
:101E3000400001EB8001044800F07EF905B000BDD0
:101E40008A000020941E00205449434B0248006839
:101E5000002800D0004770474C00002010B5FEF766
:101E600087F90446FEF764FA07490878401C0870B1
:101E7000FEF76EFA2046FEF77FF9FFF7C7FFBDE8D1
:101E80001040FFF7BFB80000540000204FF0E021E1
:101E9000401E48610648026822F07F4202600869DD
:101EA00040F005000861086940F0020008617047D1
:101EB00020ED00E070470000034A00211160034A52
:101EC000118001807047000074000020780000201D
:101ED0002DE9F05F9A4690460D4604460A9FFEF7AC
:101EE00047F98346FEF724FA5FEA080024D0012868
:101EF00007D0B0F5004F1FD06FF4004118EB010F71
:101F000012D1206A30EA0500C4E9080A208A04F1E7
:101F100008064FF0000990B14D4D2878401CC0B222
:101F20002870012815D016E0FEF712FA5846FEF781
:101F300023F945F625606CE0206A2843E4E7FEF7C4
:101F400007FA5846FEF718F9A7F80090206ABDE88E
:101F5000F09F00F017FEFEF7FBF95846FEF70CF96C
:101F6000366833E090F88810766801F00F01012997
:101F70001BD0022921D004290DD0082910D0FEF74A
:101F8000F7F80446FEF7D4F92878401E10F0FF0059
:101F900028702AD036E0216AD0F88020114009E06C
:101FA000216AD0F8802011400BE0D0F88010236A1D
:101FB0000A4699438A4205D007E0D0F88010226A89
:101FC000914311B1524600F047F816B1B0680028AD
:101FD000C8D1FEF7CDF80646FEF7AAF92878401ECC
:101FE00010F0FF00287017D018E000F0D9FD194854
:101FF000008838B1FEF7ACF92046FEF7BDF800F0D6
:102000009DFD04E0FEF7A4F92046FEF7B5F843F67F
:10201000FF20388000209AE700F0C2FDFEF798F913
:102020003046FEF7A9F85FEA084001D4FFF732F81E
:10203000FEF79EF80546FEF77BF9246AFEF788F95D
:102040002846FEF799F8A7F8009020467FE70000A1
:10205000A40000206800002070B50025C0F884109E
:1020600080F8355080F834500446026490F8360009
:1020700008280ED2DFE800F00D0D04040D0D0A0A49
:10208000204601F067F984F8365002E0042084F815
:1020900036002046BDE8704000F059BB0A4C0B4D9D
:1020A000FEF766F80646FEF743F92068401C2060FC
:1020B0002868401C2860FEF74BF93046FEF75CF8B4
:1020C000FEF7BCFEECE7000050000020BC00002042
:1020D00000B50E4A89B0002111600B2205910691CE
:1020E000CDE907200A480B4A0B4B006812681B68B1
:1020F0000292CDE903011F20CDE900030023074A26
:1021000007A10C48FFF7A2F909B000BD500000205C
:102110009844000894440008904400089D2000085A
:1021200075432F4F532D4949492049646C6520540C
:1021300061736B00F81C00202DE9F84F1D46DDE9A6
:102140000CB4DDE90AA916460F468046FEF710F8E2
:102150000090FEF7EDF81D481D4A01881288914253
:102160002DD2491C89B201801A4802888A4200D2C5
:10217000018019490868C0F80080C0E9027605822C
:10218000C0F814A0A0F81890C0F81CB0406808600F
:10219000124801210181124901604160002000F0D4
:1021A0007BFB1048007808B10F49087000202080A0
:1021B000FEF7CEF80098BDE8F84FFDF7DDBF0B49FC
:1021C0000888401C088044F25360F0E76800002053
:1021D000A04400086A00002060000020941E002037
:1021E000C01D00208A0000208C0000206C00002010
:1021F0003EB5374C374B02A920680268D51A9A427F
:1022000045D015DC344BD2182DD0344BD21822D007
:10221000334BD21832D0334BDA4208D1C269CDE900
:102220000021038B028AC168806800F0F1FF3EBD87
:102230002D4AAA181ED02D4BD21824D02C4BDA428E
:10224000F5D1C269CDE90021038B028AC16880689B
:1022500000F04EFB3EBD0091028BC369416980686E
:10226000FFF736FE3EBD018BC269806802AB00F00D
:10227000F5FC3EBD806801F07BF83EBD018BC26974
:10228000806802AB21E0806801F0C2F93EBD1948C8
:102290001949007800EB400001EB800000F09EFC43
:1022A000206802AB0021C269144801F0EDF814481F
:1022B0000168491E0160E9D1124909680160FEF711
:1022C0005FF8024602AB00210F4801F0DDF83EBD89
:1022D000640000205449434BADBAB2BE0DF90BFA6D
:1022E000F2F8F7FF0006F6FF00F7FDF700FFEFFF3B
:1022F00003FE0FFE8C000020941E0020DC20002036
:10230000F4000020F0000020A42100201D4D1E4CF0
:102310001E4E00BFFDF72CFF0746FEF709F8208888
:1023200008B3FEF715F83846FDF726FFFEF728F844
:102330000746FFF75DFFFEF723F82968C01B8142BF
:1023400000D22860FDF714FF0746FDF7F1FF306863
:10235000406830602088401E2080FDF7F9FF384635
:10236000FDF70AFFD6E70A490020088108604860A7
:1023700000F0A2FAFDF7ECFF3846FDF7FDFEFEF790
:1023800089FEC5E77000002068000020640000207E
:10239000941E0020F0B52F492F4D89B000220A80ED
:1023A000296831B12D4E3188022905D244F2546199
:1023B00035E044F2526132E029490023294F0A6096
:1023C000296801F1200410E041F8087B5B1C41F80A
:1023D000082B9BB241F8042C21F8102B41F80C2C4F
:1023E00021F8082C41F81C4C2034B6F800C0634595
:1023F000EAD32B6841F81C3C1B490B601B490B605E
:102400001B490A801B490A801B490B6853B11B4BAF
:102410001B4D1C682D68AC4207D244F25661018006
:1024200009B0F0BD44F25561F9E703240592069224
:10243000CDE907401868134B09681B68CDE9030212
:102440000092CDE9011300230F4A10A11648FEF7B0
:10245000FDFFE5E76C0000209C440008A044000854
:10246000700000204E4F4E456000002064000020A8
:10247000680000206A000020A4440008AC44000862
:10248000D4440008A84400080D23000875432F4FCA
:10249000532D49494920495352205175657565208E
:1024A0005461736B00000000C01D0020034A00212E
:1024B0001160034A11800180704700007C000020F9
:1024C00080000020F0B5164C216859B1154E3188B6
:1024D00059B189B2491E22688FB2002502F110035A
:1024E00029460EE045F21E7118E045F21D7115E017
:1024F000E2E802316D1C22F8081BADB242F8041C60
:102500001033BD42F4D3116051601181D160064A8D
:102510002368136033889380D18011810180F0BDDE
:10252000BC440008B8440008881E002010B5428949
:1025300092B10A4903680C681C6043680B60CB8841
:1025400044891B1BCB808B88448923448B800021CA
:102550004181818101604160104610BD881E0020CC
:10256000018100214181818101604160704700004B
:10257000F0B54489DDE905E70589AC4202D346F2AE
:1025800093501EE01B4DAE88CEB12C68761ED4F859
:1025900000C0C5F800C0AE80EE88761CB6B2EE80F2
:1025A000B5F808C0B44500D22E814689002556B141
:1025B000DB060ED403681C60046025600CE045F265
:1025C0001D703880F0BD04600123446043812560A4
:1025D00005E043682360446043895B1C438186892E
:1025E00043899E4200D2838161602281C4F80CE05D
:1025F0003D80F0BD881E0020034A00211160034A7F
:1026000011800180704700008400002088000020B5
:102610002DE9F041114D07460C4628680026194661
:1026200080F8342080F8356000F03AFD64B1FC6039
:1026300004F1080601223946286800F011F83946ED
:10264000304600F057F802E02868C6870663204647
:102650002968BDE8F04100F01BB80000F800002038
:1026600010B5C2870024234601630EE04B6041F899
:10267000103B641C41F8103BA4B241F80C3C21F81B
:10268000083C41F8043C41F8180C9442EED310BDCC
:1026900038B14268C1F8C42081688968096AC1619B
:1026A000704791F83400022803D0072803D004A013
:1026B00002E004A000E005A0C1F8C40070470000DB
:1026C000200000005461736B205100005461736B53
:1026D0002053656D0000000005A2C1F8C420816888
:1026E00011B18968096A00E001A1C1617047000069
:1026F0002000000030B58A68002392F83740028934
:102700001AB1521C028102680BE0012202814B6067
:102710000B60016014E0956895F83750A54203D826
:102720005268002AF7D107E032B1146854B1C1E908
:1027300000426160116030BD4B6042680A605160C8
:10274000416030BD1160C1E90032016030BD70B53B
:102750000646C48F056B07E0E8682946083000F09C
:1027600009F8641EA4B22035002CF5D10020F087B2
:10277000306370BD10B502890023012A0BD00A68AE
:1027800062B14C6874B1546022600289521E0281A9
:102790004B600B6010BD03604360F6E74A6813604E
:1027A0000260F2E753604260EFE7F8B50C46064678
:1027B00091F836100025069808293BD2DFE801F091
:1027C0003A3A04043A3A202094F83410032911D0FC
:1027D000E265A4F86030206436B12046FFF7B7FF09
:1027E00021463046FFF778FF204600F0B3FD84F81D
:1027F00036501BE000902146304600F022F8EBE70F
:1028000094F83410032916D0E265A4F860302064EF
:10281000204600F0F3FF36B12046FFF798FF21462F
:102820003046FFF759FF042084F8360084F835500D
:1028300084F83450F8BD00902146304600F001F88D
:10284000E6E770B50C6B049DC98F0AE0E668864226
:1028500004D1C4E904022383E56170BD491E89B235
:1028600020340029F2D170BD10B50024064802E0E2
:102870002034E4B2001D01680029F9D00846FDF7B4
:1028800082FC2044C0B210BD30000020014900206D
:10289000086070473000002000F01F02410901204D
:1028A000C2F11F029040034A52F82130034342F81C
:1028B000213070473000002000F01F024109012044
:1028C000C2F11F029040034A52F82130834342F87C
:1028D0002130704730000020034A00211160034A74
:1028E00011800180704700009000002094000020BB
:1028F0002DE9FF4F83B01F46DDE9109A9346064647
:10290000FDF736FC0546FDF713FD384C2078401CDA
:10291000C0B22070012801D100F034F9FDF718FD94
:102920002846FDF729FC358A06F108001DB1B905D6
:1029300030D500683CE0F80601D4002300E0102305
:10294000CDE9009A5A4606F120000499FFF710FEDF
:10295000FDF70EFC0546FDF7EBFC2078401E10F05D
:10296000FF0121700ED100F01BF92148008848B109
:10297000FDF7EEFC2846FDF7FFFB07B0BDE8F04F82
:1029800000F0DCB8FDF7E4FC07B02846BDE8F04FE6
:10299000FDF7F2BB006801255B46D0E90181CDF867
:1029A00000903046049AFFF700FF6D1E4046ADB21E
:1029B000002DF1D1FDF7DCFB0546FDF7B9FC2078D1
:1029C000401E10F0FF00207001D100F0E9F8FDF783
:1029D000BFFC2846FDF7D0FB380401D4FEF75AFBB4
:1029E0000021AAF8001007B0BDE8F08FA400002075
:1029F000680000200020074B014600BF00EB4002AA
:102A000003EB8202401C11811160C0B2516020288A
:102A1000F4D37047941E002010B5044690F8370098
:102A2000FFF73AFF074994F83700097888422046B3
:102A300003D1BDE8104000F023B8BDE8104000F01D
:102A400003B800008A00002090F837100B4A01EB11
:102A5000410102EB810100220B8943B15B1C0B8118
:102A60000B68C0E903320A681061086070470123EF
:102A70000B81C2600261086048607047941E0020AC
:102A800090F837100A4A01EB410102EB8101002264
:102A90000B893BB15B1C0B81C2604A680261D0604C
:102AA0004860704701230B81C26002610860F7E74C
:102AB000941E002010B50289002A14D0012A12D0D9
:102AC0000021022A07D0D0E90024D3681961C2E9A5
:102AD0000314E26005E0D0E90023C2E90313C3E96F
:102AE0000321C0E9003210BD70B5054690F83700EB
:102AF000114900EB400001EB8001D5E903020024FD
:102B000042B10B895B1E0B81D06090B102612C61D8
:102B1000EC6070BD28B10A89521E0A810461086008
:102B2000F5E70C810C604C6095F83700FFF7C4FEA8
:102B3000EDE74A60EBE70000941E002010B5FDF7BA
:102B400017FB0B4A002111700B4A0A49116051F81A
:102B5000902F521C0A6009490A68521C0A60084AF0
:102B60004FF080511160BDE81040FDF705BB00003B
:102B70008B000020C01D0020FC000020D0000020A1
:102B800004ED00E0044810B50078012803D1FDF7FA
:102B9000F7FB0249086010BDA40000209800002047
:102BA0000A4810B5007800280ED1FDF7E9FB084966
:102BB0000968401A07490A68824200D2086006493B
:102BC0000A68824200D2086010BD0000A400002004
:102BD000980000209C000020A000002070B5044652
:102BE00014480078012824D1FDF7C2FA0546FDF704
:102BF0009FFB2168B1B11048814213D08A6D12B198
:102C0000521E8A650ED1208902280BD30B4800780A
:102C100040B92046FFF74EFF2068416D09B90849C9
:102C200009688165FDF794FB2846BDE87040FDF713
:102C3000A3BA70BDAC000020F81C0020A400002046
:102C4000A8000020034A00211160034A118001807E
:102C500070470000B0000020B40000202DE9F84FBC
:102C60001E46904689460446FDF782FA0090FDF71D
:102C70005FFB208A04F108074FF0000B50B1DFF82A
:102C8000BCA09AF80010491CC9B28AF800100129AA
:102C90001AD01BE0256A681C0CD06D1CC4E90858CA
:102CA000FDF756FB0098FDF767FAA6F800B0284636
:102CB000BDE8F88FFDF74CFB0098FDF75DFA46F68E
:102CC000C55030800020F3E7FFF75CFFFDF740FBC5
:102CD0000098FDF751FA5FEA895002D53D893F68B7
:102CE0000CE03F6801250023B9687F681A4620463A
:102CF000CDF80080FFF759FD6D1EADB2002DF2D169
:102D0000246AFDF735FA0546FDF712FB9AF8000034
:102D1000401E10F0FF008AF8000001D1FFF740FFCD
:102D2000FDF716FB2846FDF727FA5FEA094001D4B4
:102D3000FEF7B0F9A6F800B02046B9E7A4000020DD
:102D40000EB5964C964E2068450004E028466A462B
:102D50000021FEF721FF30780128F7D16846FEF701
:102D600097FA904822680168914206D90A4621687C
:102D7000B2FBF1F15FEA010803D100680A21B0FB60
:102D8000F1F8DFF824B2894F42F2107A5FF00006C2
:102D9000FDF7F6FA0190FDF7BDFA85490860FDF7E9
:102DA000E7F90546FDF7C4FA8248834C01682160C3
:102DB0000660FDF7CDFA2846FDF7DEF97F48236867
:102DC00002689A422BD97E48824202D250460121A3
:102DD00015E07C48824203D24FF47A700A210EE05B
:102DE0007948824202D26420014608E07748824254
:102DF00003D20A204FF47A7101E001205146B2FB60
:102E0000F1F15843B0FBF1F0AAEB0000704980B239
:102E1000ABF800000A88824203D2088001E0ABF8D8
:102E200000A0FEF70BFB0024FDF7A2F98146FDF799
:102E30007FFA3D6842E000BFFDF79AF90290FDF786
:102E400077FADFF8909199F80010491CC9B289F817
:102E50000010012901D1FFF795FEFDF779FA0298DC
:102E6000FDF78AF9D5F89C00C5E92760FDF780F9E0
:102E70000290FDF75DFA99F80010491E11F0FF016C
:102E800089F800100CD1FFF78BFE5348008838B149
:102E9000FDF75EFA0298FDF76FF9FFF74FFE04E0C9
:102EA000FDF756FA0298FDF767F955F8A00F0444AC
:102EB000FDF75EF98146FDF73BFA2D6AFDF748FA0A
:102EC0004846FDF759F9002DB6D12CB33C48844251
:102ED00002D25546012015E03A48844203D24FF40D
:102EE0007A750A200EE03848844202D264252846CA
:102EF00008E03648844203D20A254FF47A7001E094
:102F000001255046B4FBF0F08146FDF731F90290FF
:102F1000FDF70EFA3C6822E000250120F4E700BF2F
:102F2000D4F8A0006843B0FBF9F080B2504500D956
:102F30005046A4F88C00B4F88E10814201D2A4F857
:102F40008E0004F1AC026B46111D2046FEF738FDE1
:102F5000FDF70EF90290FDF7EBF9D4F8C040FDF74C
:102F6000F7F90298FDF708F9002CD9D11B48017830
:102F7000012903D106706846FEF78AF9FDF700FAC9
:102F80000199401A16490A68824200D208606A46CE
:102F900000214046FEF700FEFAE60000C4440008A7
:102FA000C8000020D8440008B8000020D400002049
:102FB00058000020BC000020C4000020C0000020F9
:102FC000801A060000093D00005A62020084D717EB
:102FD000BA000020A400002068000020B6000020F5
:102FE000CC00002030B51D4A89B0002111601C4A78
:102FF00011601C4A11601C4A11701C4A11701C4A55
:10300000136843B11B4B1C4D1C682D68AC4205D2A4
:1030100046F62C6108E046F62B6105E0174C257852
:103020001F2D04D346F62A61018009B030BD032567
:1030300005910691CDE9075011481B681268006898
:10304000CDE90120CDE903312078009000230D4A1D
:103050000DA11248FEF7FAF9E7E70000BC000020D6
:10306000C4000020C0000020C8000020B6000020DE
:10307000C8440008D0440008D4440008C0440008F4
:10308000CC440008412D000875432F4F532D49496A
:10309000492053746174205461736B001420002024
:1030A00038B50446022531B16B46022200F03AFBE6
:1030B000BDF8000028B184F836502046FFF714FD13
:1030C00038BD032084F83600F7E70000074B0022E4
:1030D000C0F8BC20196829B1C0F8C010C1F8BC0004
:1030E00018607047C0F8C020FAE70000D400002044
:1030F000D0E92F2100234AB181B1C2F8C010C1F834
:10310000BC20C0F8C030C0F8BC307047054A116020
:1031100009B1C1F8BC30C0F8C0307047C2F8C03047
:10312000F1E70000D4000020044A00211160044AA5
:103130001180044A1160018070470000D400002013
:10314000D8000020D000002070B500250560856003
:103150004560C560056145610446856129A0C4E9F3
:1031600007506562A562E5622563E5872564E5652C
:10317000A4F86050002104F16400FFF7F1F96567DD
:10318000A567C4F88050A4F888500020C4F8845083
:1031900004EB8001401CCD6710F0FF00F8D065649F
:1031A000C4F8A450C4F8A850A56384F88A50C4F8A1
:1031B000B050C4F8AC50A5874FF00040C4E91205E8
:1031C00025656565A565A4F88C50A4F88E50C4F8F3
:1031D0009050C4F894503434FDF7D2F8C4E919057E
:1031E000C4F88050C4F8845004F8015B202004F82F
:1031F000015B04F8015B04F8850B04A020C4C4E95A
:10320000005070BD3F5461736B000000200000004F
:103210002DE9FC5F9946DDE90C7692468B46054622
:10322000FCF7A6FF8046FDF783F8474C2078401C4A
:10323000C0B22070012801D1FFF7A4FCFDF788F887
:103240004046FCF799FF0DB94048056800203080E2
:1032500095F83600DFF8F880082852D2DFE800F051
:103260000404262604042626CDE900764B46524661
:10327000594605F16400FFF77BF9FCF779FF054635
:10328000FDF756F82078401E10F0FF01217031D173
:10329000FFF786FCB8F8000060B3FDF759F8284640
:1032A000FCF76AFFBDE8FC5FFFF748BC95F8340007
:1032B0000228D9D153465A46294600200097FFF7E5
:1032C00074FAFCF755FF0546FDF732F82078401EEA
:1032D00010F0FF01217001D1FFF762FCFDF738F813
:1032E0002846FCF749FF5FEA09402AD4BDE8FC5FA5
:1032F000FDF7D0BEFDF72CF82846BDE8FC5FFCF7D3
:103300003BBFFCF735FF0546FDF712F82078401E5D
:1033100010F0FF0020700CD1FFF742FCB8F800005D
:1033200038B1FDF715F82846FCF726FFFFF706FC35
:1033300004E0FDF70DF82846FCF71EFF46F62D6069
:103340003080BDE8FC9F0000A4000020F8000020B1
:103350006800002010B5044600F050FA94F83600DA
:10336000400704D42046BDE81040FFF755BB10BD10
:103370002DE9F0410D460446FCF7FAFE0746FCF73E
:10338000D7FF00262E8094F83600082864D2DFE8A4
:1033900000F0040404040D394955FCF7D9FF384600
:1033A000FCF7EAFE47F25310288037E02F4D2878CB
:1033B000401CC0B22870012801D1FFF7E3FBFCF7E5
:1033C000C7FF3846FCF7D8FE94F88A00401E10F07C
:1033D000FF0084F88A0004D184F836602046FFF7A5
:1033E000B9FFFCF7C5FE0446FCF7A2FF2878401E93
:1033F00010F0FF01297001D1FFF7D2FBFCF7A8FF05
:10340000204609E094F88A00401E10F0FF0084F87E
:103410008A001BD101200EE0FCF7AEFEBDE8F041B2
:10342000FDF738BE94F88A00401E10F0FF0084F8C3
:103430008A000BD1022084F8360007E094F88A0055
:10344000401E10F0FF0084F88A0003D0FCF780FFD4
:103450003846E1E70320EEE7FCF77AFF3846FCF751
:103460008BFE46F62D602880BDE8F081A400002088
:10347000044808B50068FEF7E3F969460020FEF746
:10348000E9F808BDF80000202DE9F84F984691466C
:103490008B460646FCF76CFE0546FCF749FF594C87
:1034A0002078401CC0B22070012801D1FFF76AFBD0
:1034B000FCF74EFF2846FCF75FFE0EB9524806683F
:1034C0000020524FC6F84090A8F8000096F8360049
:1034D00046F6C55A082872D2DFE800F033332F2FA2
:1034E00033332F2FFCF734FF2846FCF745FEFFF758
:1034F00025FB04E0FCF72CFF2846FCF73DFEA8F86E
:1035000000A00020BDE8F88F6D1C7564FCF730FE4C
:103510000646FCF70DFF2078401E10F0FF002070DB
:1035200047D1FFF73DFB3888F0B3FCF711FF304679
:10353000FCF722FEFFF702FB62E096F83400072852
:1035400013D0756C681CDFD1FCF712FE0546FCF742
:10355000EFFE2078401E10F0FF002070CAD1FFF768
:103560001FFB38880028C5D0BCE700231A46314627
:103570001846CDF80090FFF718F9756CFCF7F8FDC8
:103580000646FCF7D5FE2078401E10F0FF002070A4
:1035900001D1FFF705FBFCF7DBFE3046FCF7ECFD45
:1035A0005FEA0B402CD401E003E008E0FDF772FD78
:1035B00026E0FCF7CDFE3046FCF7DEFD20E0FCF710
:1035C000D7FD0546FCF7B4FE2078401E10F0FF0042
:1035D00020700BD1FFF7E4FA388838B1FCF7B8FE59
:1035E0002846FCF7C9FDFFF7A9FA04E0FCF7B0FE96
:1035F0002846FCF7C1FD46F62D60A8F8000000251E
:1036000028467FE7A4000020F80000206800002082
:103610002DE9F0410D460446FCF7AAFD0746FCF7EC
:1036200087FE334804B90468016832488C4209D1E6
:10363000017839B1FCF78CFE3846FCF79DFD46F663
:10364000635052E00021298094F8361001260829A1
:1036500044D2DFE801F0043133393B3B3B3B0546C4
:103660000078401CC0B22870012801D1FFF78AFA07
:10367000FCF76EFE3846FCF77FFD042084F8360028
:1036800084F88A602046FFF72FFAFCF771FD0446A4
:10369000FCF74EFE2878401E10F0FF01297001D182
:1036A000FFF77EFAFCF754FE4FEA0400FCF764FDD6
:1036B000BDE8F041FDF7EEBC052000E0062084F8EF
:1036C000360084F88A6005E00720F8E714F88A0FCE
:1036D000401C2070FCF73CFE3846E7E7FCF738FE5C
:1036E0003846FCF749FD46F62D602880BDE8F0819C
:1036F000F8000020A400002010B500200146074C6F
:10370000074B06E004EBC002401C11609180D180A1
:1037100080B21A889042F5D310BD0000E81900204D
:10372000EC440008F0B5324C47F27E2625680024B0
:10373000042A08D0B1B32E4E082A36680E440BD0A6
:10374000C0E9136115E04A1B521E12F5803F2AD8CA
:10375000521CC0E913120CE0826C0A44571B7F1EF6
:103760008F4201D2C26400E0C664C16C4A1B02658C
:103770008164204AC16C1288B1FBF2F602FB16117B
:103780001D4A89B202EBC102918889B11168F1B179
:10379000CE6C761B0E65076DB74212D94E6966B1C5
:1037A0003146F5E7FFE7C4640465C4611E80F0BDDF
:1037B00044618461012110600BE0C0E9054148616A
:1037C00005E08D6975B1C0E905156861886191886A
:1037D000491C9180D58889B28D4200D2D180C261C6
:1037E0001C80F0BDC0E9051488611060EFE700009F
:1037F000DC000020EC440008E819002010B5C26984
:10380000002A15D0002101651368834204D1436961
:10381000136033B1996104E0D0E90534636103B109
:103820009C6141618161C161C1649088401E90804A
:1038300010BD000010B500200446064B064A04E007
:1038400003EBC001401CCC8080B211888842F7D3C2
:1038500010BD0000E8190020EC4400082DE9F05FDD
:10386000FCF786FC0446FCF763FD554D2878401CA8
:10387000C1B22970012901D1FFF784F9FCF768FD75
:103880002046FCF779FCFCF77BFDDFF83881074622
:103890004D49D8F800004FF00009401CC8F800005E
:1038A00009884FF0030AB0FBF1F201FB120047490F
:1038B00080B24FF0040B51F8304074B394F83600E6
:1038C0006669082851D2DFE800F0500450115029F1
:1038D0005036E06CD8F80010421A2265884246D172
:1038E00084F836902046FFF735FD3EE0E06CD8F8CE
:1038F0000010421A2265884239D1C4F85C90A4F8BD
:103900006090FCF73DFD20642046FEF720FF204636
:10391000FFF720FD84F8369023E028E0E06CD8F82B
:103920000010421A2265884221D184F836B0204620
:10393000FFF764FF19E0E06CD8F80010421A226526
:10394000884214D1C4F85C90A4F86090FCF718FD8C
:1039500020642046FEF7FBFE2046FFF74FFF84F869
:1039600036B084F835A084F834903446A5E7FCF7E7
:1039700007FD1749C01B0A68824200D20860FCF7A5
:10398000F7FB0446FCF7D4FC2878401E10F0FF013A
:1039900029700DD1FFF704F90E48008840B1FCF7FB
:1039A000D7FC2046FCF7E8FBBDE8F05FFFF7C6B8A0
:1039B000FCF7CEFC2046BDE8F05FFCF7DDBB000065
:1039C000A4000020DC000020EC440008E8190020DE
:1039D000E0000020680000201CB5084C00216B4668
:1039E00001AA0846FDF734FFBDF800000028F5D114
:1039F00020780128F2D1FFF731FFEFE75C000020CB
:103A000030B504461A4889B000250560194805609C
:103A1000FFF772FE1848016841B11849184B0A684F
:103A20001B689A4205D247F2132008E047F21220A1
:103A300005E0144A13781F2B04D347F2112020808D
:103A400009B030BD0B2305950695CDE907340E4B23
:103A5000096800681B68CDE90103CDE903151078FA
:103A600000900023094A0AA10E48FDF7EFFCE7E7A2
:103A7000DC000020E0000020E0440008E8440008EA
:103A8000D4440008DC440008E4440008D9390008A4
:103A900075432F4F532D494949205469636B205476
:103AA00061736B00DC20002030B52A4A89B0002108
:103AB000294B1160294C2A4A1D681DB12468B4FBAA
:103AC000F5F303E023680A24B3FBF4F313601A460A
:103AD000244B274D274C1A60234A1160234A11605A
:103AE000002206E005EBC203521C9980D98092B2F5
:103AF000196023889A42F5D31F4B1A6842B11F4AB6
:103B00001F4D14682D68AC4205D247F2483108E0D9
:103B100047F2473105E01B4C25781F2D04D347F2AF
:103B20004631018009B030BD0B2505910691CDE9E4
:103B300007501068144A1B681268CDE90301CDE9EB
:103B40000132207800900023104A11A11648FDF799
:103B50007DFCE7E7E4000020F0440008D8440008BA
:103B6000F0000020F4000020EC000020E80000201D
:103B7000701C002000450008F4440008FC440008C4
:103B8000D4440008EE440008F84400086D3C0008E6
:103B900075432F4F532D4949492054696D65722053
:103BA0005461736B00000000A421002070B5022254
:103BB00080F82A20204A012914681ED0016AE1B148
:103BC0001E4A214481611288B1FBF2F302FB1312F9
:103BD0001B4B92B203EBC202002315687DB1091B97
:103BE000C1611168D1B18D692D1BCD61C669AE422D
:103BF0000ED90D6945B12946F5E7416AE0E7036151
:103C00004361106001200BE0C0E90431086105E068
:103C10004C6964B1C0E90414206148619088401C7B
:103C20009080D18880B2814200D2D08070BDC0E93E
:103C3000041348611060F1E7EC0000200045000823
:103C4000701C002010B500200446064B064A04E014
:103C500003EBC001401CCC8080B211888842F7D3AE
:103C600010BD0000701C0020004500081CB5DFF8E6
:103C70009090DFF890A0244DDFF890B000216B46C3
:103C800001AA0846FDF7E4FD6846FDF741FAFCF796
:103C900077FB064628684FF00308401C2860B9F8F7
:103CA0000010B0FBF1F201FB120080B25AF8304074
:103CB000C4B1A06929682769884213D1204600F061
:103CC00027F8208D022808D084F82A80A26812B133
:103CD0002046E16890473C46EAE701212046FFF78D
:103CE00065FFF3E7FCF74CFB841B6846FDF76AFAB7
:103CF000DBF80010A142C1D2CBF80040BEE70000C3
:103D000000450008701C0020EC000020E8000020A6
:103D100010B5104A81691288B1FBF2F302FB13114E
:103D20000D4A89B202EBC102002314680169844282
:103D300003D1116029B14B6103E04469216101B1F4
:103D40004C61012180F82A10036143619088401E74
:103D5000908010BD00450008701C0020704730B5F1
:103D60008FB028216846FCF720FA14210AA8FCF736
:103D70001CFA01210804CDE9001000240294022558
:103D80000491CDE907504FF4E01009906846FCF724
:103D900081FD0F20CDE90A056802CDE90C40022122
:103DA0000AA80E94FCF784FC0FB030BD70470000E9
:103DB00070B5044600680169E26821F4405111437E
:103DC00001612169A0680843616908432168CA68E4
:103DD00041F20C639A430243CA6020684169A269B8
:103DE00021F44071114341611E492068884202D18B
:103DF000FCF70AFD01E0FCF7F7FC00EBC00101EB6A
:103E00000012606864218000B2FBF0F3B3FBF1F3B1
:103E10006FF018067343B2FBF0F5B2FBF0F605EB5A
:103E20008305322303EB0515B5FBF1F5B6FBF1F67F
:103E300005F0F00505EB0615B2FBF0F6B2FBF0F06D
:103E4000B0FBF1F06FF01802504306EB800003EB7B
:103E50000010B0FBF1F0216800F00F0028448860EA
:103E600070BD0000003801402DE9F041984617462A
:103E70000E460446069D1DE0681C1BD02DB1FCF7C4
:103E800091FBA0EB0800A84214D92068C16821F476
:103E9000D071C1602068416921F001014161202099
:103EA00084F83D0084F83E00002084F83C000320A4
:103EB000BDE8F0812068006836EA000004D00020E8
:103EC000B842D9D00020F3E70120F9E7FEE700006F
:103ED0000FB4054B10B503A9044A029800F028F866
:103EE00010BC5DF814FB00008540000800010020B4
:103EF0000907090E002804DB00F1E02080F8001417
:103F0000704700F00F0000F1E02080F8141D7047AA
:103F100002E008C8121F08C1002AFAD17047704792
:103F2000002001E001C1121F002AFBD170470000F0
:103F30002DE9FF4F89B09B460446002506E0252861
:103F40000BD05A460B999047641C6D1C20780028B2
:103F5000F5D10DB02846BDE8F08F0027B846012204
:103F6000474900E0074314F8013F203B02FA03F001
:103F70000842F7D120782E2819D114F8010F47F004
:103F800004072A280ED06FF02F022078A0F130010C
:103F900009290CD808EB880102EB410100EB01086C
:103FA000641CF2E70A98641C50F8048B0A9020788D
:103FB0000028CED0642808D0692806D075281ED0E5
:103FC0005A460B9990476D1C58E00A994FF00A0920
:103FD00001C90A91002802DA40422D2102E0390588
:103FE00004D52B218DF82010012103E0F90704D01E
:103FF0002021F7E78A4608AE0DE00021FAE70A998A
:104000004FF00A0901C90A91F7E74946FCF7D8F8C9
:10401000303106F8011D0028F7D1ADEB060000F1A4
:104020002009780701D44FF00108C84502DDA8EB4C
:10403000090000E000208046002706E008A85A4654
:10404000C05D0B9990476D1C7F1C5745F6DB04E063
:1040500030205A460B9990476D1CB8F10001A8F129
:104060000108F5DC05E016F8010B5A460B9990475C
:104070006D1CB9F10001A9F10109F4DC641C65E7CC
:104080000928010013B54FF6FF7301226946024863
:10409000FCF70EFE00981CBD240800200EB500247D
:1040A000FCF766F80646FCF743F9264D2878401CD5
:1040B000C0B22870012801D1FEF764FDFCF748F971
:1040C0003046FCF759F8FCF753F80646FCF730F990
:1040D0002878401E10F0FF0028700CD1FEF760FD1C
:1040E0001948008838B1FCF733F93046FCF744F83A
:1040F000FEF724FD04E0FCF72BF93046FCF73CF812
:10410000DFF84880002502AE4FF48077641CE4B2EB
:10411000082C07D104210EA0FFF7DAFE02A91348EC
:10412000FDF798FA12A0FFF7D3FE39464046FCF798
:104130002BFA0023CDE90056012219461846FDF757
:10414000A1FDE3E7A4000020680000200008014072
:10415000C8CECEF14C454431C9BEB3FDA3ACD6B4F4
:10416000D0D0B4CECAFD25640A000000940400201B
:10417000C8CECEF14C454430D6B4D0D00A000000B1
:104180000EB5FBF7F5FF0546FCF7D2F81E4C20787C
:10419000401CC1B22170012901D1FEF7F3FCFCF7EC
:1041A000D7F82846FBF7E8FFFBF7E2FF0546FCF7E8
:1041B000BFF82078401E10F0FF0121700CD1FEF7EF
:1041C000EFFC1248008838B1FCF7C2F82846FBF72C
:1041D000D3FFFEF7B3FC04E0FCF7BAF82846FBF780
:1041E000CBFF0B4D002402AE04212846FCF7CCF98E
:1041F00008A0FFF76DFE0023CDE900460222194614
:104200001846FDF73FFDEFE7A400002068000020FE
:1042100000140140C8CECEF14C454431D6B4D0D0C4
:104220000A00000010B58AB009A8FCF70FFEFCF7E1
:10423000BFF9FFF794FDFCF7E1FD002006AB09AAEA
:104240000321059083E8070040220623094CCDE9AD
:104250000232CDE9001404900346074A07A1A4F1F5
:10426000C800FDF7F3F809A8FCF7E6FF0AB0002044
:1042700010BD0000CC0100208942000873746172F7
:1042800074207461736B00002DE9F0438BB0FCF770
:1042900001F809A8FDF778F8FCF72CF8012109AA24
:1042A0000846FCF763FFFBF763FF0446FCF740F8A2
:1042B000DFF8E09099F80000401CC2B289F80020B5
:1042C000012A01D1FEF75EFCFCF742F82046FBF71D
:1042D00053FF002406A809AE0325059480E870006A
:1042E0004FF006082C4904208DE8030140272A4896
:1042F000CDE903742346294A29A1C838FDF7A6F859
:1043000006A8059480E87000284905208DE803017F
:104310002648CDE903740023254A26A1C838FDF7B5
:1043200095F806A8CDF80880059480E87000244927
:104330002348CDE90051CDE903740023214A22A18D
:10434000C838FDF783F809A92248FFF761F9FBF7A0
:104350000FFF0446FBF7ECFF99F80000401E10F039
:10436000FF0289F800200ED1FEF71AFC1A480088D7
:1043700048B1FBF7EDFF2046FBF7FEFEFEF7DEFB44
:104380000BB0BDE8F083FBF7E3FF2046FBF7F4FE3C
:10439000F6E70000A4000020940300209D400008E0
:1043A0006C656430207461736B0000005C05002054
:1043B000814100086C656431207461736B000000FA
:1043C00024070020DD430008756172742074617356
:1043D0006B00000004010020680000200EB5FBF710
:1043E000C7FE0546FBF7A4FF1C4C2078401CC1B259
:1043F0002170012901D1FEF7C5FBFBF7A9FF284673
:10440000FBF7BAFEFBF7B4FE0546FBF791FF2078F9
:10441000401E10F0FF0121700CD1FEF7C1FB1048C7
:10442000008838B1FBF794FF2846FBF7A5FEFEF79E
:1044300085FB04E0FBF78CFF2846FBF79DFE00247C
:1044400002AD08A0FFF744FD0023022219461846DA
:10445000CDE90045FDF716FCF3E70000A4000020BD
:104460006800002055434F532D332048656C6C6F16
:1044700020576F726C640A0000000000000000000A
:1044800001020304060708090000000001020304FA
:10449000680800200C00000080000000680A00206E
:1044A0000A000000A80B00200C00000080000000A3
:1044B000A80D00208000000064000000A80F00206C
:1044C0000B0000000A000000E81500200C000000AE
:1044D0008000000040000000E80300000A00000027
:1044E000E81700200C0000008000000011000B0005
:1044F0000A000000701A00200C000000800000007C
:104500001100000024450008000000200401000004
:10451000103F000828460008040100206C25000018
:10452000203F000801000000100000000000000013
:104530000024F40000000000000000000000000063
:10454000000000000000000000000000000000006B
:10455000000000000000000000000000000000005B
:10456000000000000000000000000000000000004B
:10457000000000000000000000000000000000003B
:10458000000000000000000000000000000000002B
:10459000000000000000000000000000000000001B
:1045A000000000000000000000000000000000000B
:1045B00000000000000000000000000000000000FB
:1045C00000000000000000000000000000000000EB
:1045D00000000000000000000000000000000000DB
:1045E00000000000000000000000000000000000CB
:1045F00000000000000000000000000000000000BB
:1046000000000000000000000000000000000000AA
:10461000000000000000000000000000000000009A
:08462000000000000000000092
:0400000508000131BD
:00000001FF
